{
  "contractName": "StoreValue",
  "abi": [
    {
      "constant": false,
      "inputs": [
        {
          "name": "newValue",
          "type": "string"
        }
      ],
      "name": "update",
      "outputs": [],
      "payable": false,
      "stateMutability": "nonpayable",
      "type": "function"
    },
    {
      "constant": true,
      "inputs": [],
      "name": "owner",
      "outputs": [
        {
          "name": "",
          "type": "address"
        }
      ],
      "payable": false,
      "stateMutability": "view",
      "type": "function"
    },
    {
      "inputs": [],
      "payable": false,
      "stateMutability": "nonpayable",
      "type": "constructor"
    },
    {
      "anonymous": false,
      "inputs": [
        {
          "indexed": false,
          "name": "newValue",
          "type": "string"
        }
      ],
      "name": "ValueChanged",
      "type": "event"
    }
  ],
  "bytecode": "0x6060604052341561000f57600080fd5b60206040519081016040528060008152506001908051906020019061003592919061003b565b506100e0565b828054600181600116156101000203166002900490600052602060002090601f016020900481019282601f1061007c57805160ff19168380011785556100aa565b828001600101855582156100aa579182015b828111156100a957825182559160200191906001019061008e565b5b5090506100b791906100bb565b5090565b6100dd91905b808211156100d95760008160009055506001016100c1565b5090565b90565b6102cd806100ef6000396000f30060606040526004361061004c576000357c0100000000000000000000000000000000000000000000000000000000900463ffffffff1680633d7403a3146100515780638da5cb5b146100ae575b600080fd5b341561005c57600080fd5b6100ac600480803590602001908201803590602001908080601f01602080910402602001604051908101604052809392919081815260200183838082843782019150505050505091905050610103565b005b34156100b957600080fd5b6100c16101d7565b604051808273ffffffffffffffffffffffffffffffffffffffff1673ffffffffffffffffffffffffffffffffffffffff16815260200191505060405180910390f35b80600190805190602001906101199291906101fc565b507fce59a1f2cca0fa1bf7d80c74a303393cb56e768ec38427649054a68be65e11d7600160405180806020018281038252838181546001816001161561010002031660029004815260200191508054600181600116156101000203166002900480156101c65780601f1061019b576101008083540402835291602001916101c6565b820191906000526020600020905b8154815290600101906020018083116101a957829003601f168201915b50509250505060405180910390a150565b6000809054906101000a900473ffffffffffffffffffffffffffffffffffffffff1681565b828054600181600116156101000203166002900490600052602060002090601f016020900481019282601f1061023d57805160ff191683800117855561026b565b8280016001018555821561026b579182015b8281111561026a57825182559160200191906001019061024f565b5b509050610278919061027c565b5090565b61029e91905b8082111561029a576000816000905550600101610282565b5090565b905600a165627a7a72305820c4add39acb53cf89047d1ce12ac5bbf58e8a694576e67bd50811a1af7bbcc5380029",
  "source": "pragma solidity ^0.4.17;\n\ncontract StoreValue {\n  address public owner;\n  string value;\n\n  event ValueChanged(string newValue); // Event\n \n  function StoreValue() public {\n      value = \"\";\n  }\n\n  function update(string newValue) public {\n      value = newValue;\n      ValueChanged(value);\n  }\n}",
  "sourcePath": "/Users/nuqu/Repositories/blockchain-experiments/storing-ipfs/contracts/StoreValue.sol",
  "compiler": {
    "name": "solc",
    "version": "0.4.18+commit.9cf6e910.Emscripten.clang"
  },
  "schemaVersion": "1.0.1",
  "updatedAt": "2018-02-01T18:03:59.780Z"
}